:020000040800F2
:100000000050002011150008411100084911000896
:10001000511100085911000861110008000000008A
:10002000000000000000000000000000691100084E
:100030007511000800000000811100088D110008F2
:1000400059150008591500085915000859150008D8
:10005000591500085915000859150008991100088C
:1000600059150008591500085915000859150008B8
:1000700059150008591500085915000859150008A8
:100080005915000859150008591500085915000898
:100090005915000859150008591500085915000888
:1000A0005915000859150008591500085915000878
:1000B000591500085915000859150008A91100081C
:1000C000BD110008591500085915000859150008F8
:1000D00059150008D11100085915000859150008D4
:1000E000E511000859150008591500080000000026
:1000F0000000000000000000000000000000000000
:0C01000000000000000000005FF808F1A3
:1001100010B5054C237833B9044B13B10448AFF341
:1001200000800123237010BD0C000020000000009F
:100130002059000808B5034B1BB103490348AFF32E
:10014000008008BD000000001000002020590008B9
:1001500081F0004102E000BF83F0004330B54FEA78
:1001600041044FEA430594EA050F08BF90EA020FE5
:100170001FBF54EA000C55EA020C7FEA645C7FEA78
:10018000655C00F0E2804FEA5454D4EB5555B8BF9B
:100190006D420CDD2C4480EA020281EA030382EA0C
:1001A000000083EA010180EA020281EA0303362D9E
:1001B00088BF30BD11F0004F4FEA01314FF4801C71
:1001C0004CEA113102D0404261EB410113F0004F83
:1001D0004FEA03334CEA133302D0524263EB43033A
:1001E00094EA050F00F0A780A4F10104D5F1200ED8
:1001F0000DDB02FA0EFC22FA05F2801841F1000133
:1002000003FA0EF2801843FA05F359410EE0A5F106
:1002100020050EF1200E012A03FA0EFC28BF4CF037
:10022000020C43FA05F3C01851EBE37101F00045ED
:1002300007D54FF0000EDCF1000C7EEB00006EEBFA
:100240000101B1F5801F1BD3B1F5001F0CD3490884
:100250005FEA30004FEA3C0C04F101044FEA4452DB
:1002600012F5800F80F09A80BCF1004F08BF5FEA62
:10027000500C50F1000041EB045141EA050130BD42
:100280005FEA4C0C404141EB0101013C28BFB1F554
:10029000801FE9D291F0000F04BF01460020B1FA9F
:1002A00081F308BF2033A3F10B03B3F120020CDA72
:1002B0000C3208DD02F1140CC2F10C0201FA0CF050
:1002C00021FA02F10CE002F11402D8BFC2F1200CB5
:1002D00001FA02F120FA0CFCDCBF41EA0C0190406B
:1002E000E41AA2BF01EB0451294330BD6FEA0404B4
:1002F0001F3C1CDA0C340EDC04F11404C4F120029F
:1003000020FA04F001FA02F340EA030021FA04F3B0
:1003100045EA030130BDC4F10C04C4F1200220FA07
:1003200002F001FA04F340EA0300294630BD21FA45
:1003300004F0294630BD94F0000F83F4801306BF0B
:1003400081F480110134013D4EE77FEA645C18BFFF
:100350007FEA655C29D094EA050F08BF90EA020F96
:1003600005D054EA000C04BF1946104630BD91EA8E
:10037000030F1EBF0021002030BD5FEA545C05D191
:100380004000494128BF41F0004130BD14F58004D0
:100390003CBF01F5801130BD01F0004545F0FE4144
:1003A00041F470014FF0000030BD7FEA645C1ABF79
:1003B000194610467FEA655C1CBF0B46024650EAB0
:1003C000013406BF52EA033591EA030F41F40021DC
:1003D00030BD00BF90F0000F04BF0021704730B562
:1003E0004FF4806404F132044FF000054FF0000137
:1003F00050E700BF90F0000F04BF0021704730B5F8
:100400004FF4806404F1320410F0004548BF4042CC
:100410004FF000013EE700BF42004FEAE2014FEA21
:1004200031014FEA02701FBF12F07F4393F07F4FFC
:1004300081F06051704732F07F4208BF704793F0FF
:100440007F4F04BF41F40021704730B54FF4607412
:1004500001F0004521F000411CE700BF50EA010215
:1004600008BF704730B54FF000050AE050EA0102BE
:1004700008BF704730B511F0004502D5404261EB2E
:1004800041014FF4806404F132045FEA915C3FF46F
:10049000D8AE4FF003025FEADC0C18BF03325FEA0C
:1004A000DC0C18BF033202EBDC02C2F1200300FABD
:1004B00003FC20FA02F001FA03FE40EA0E0021FAE2
:1004C00002F11444BDE600BF70B54FF0FF0C4CF4D0
:1004D000E06C1CEA11541DBF1CEA135594EA0C0F82
:1004E00095EA0C0F00F0DEF82C4481EA030621EABD
:1004F0004C5123EA4C5350EA013518BF52EA0335F8
:1005000041F4801143F4801338D0A0FB02CE4FF0A9
:100510000005E1FB02E506F00042E0FB03E54FF0D9
:100520000006E1FB03569CF0000F18BF4EF0010ED1
:10053000A4F1FF04B6F5007F64F5407404D25FEACD
:100540004E0E6D4146EB060642EAC62141EA555180
:100550004FEAC52040EA5E504FEACE2EB4F1FD0CC2
:1005600088BFBCF5E06F1ED8BEF1004F08BF5FEA40
:10057000500E50F1000041EB045170BD06F00046F2
:1005800046EA010140EA020081EA0301B4EB5C049F
:10059000C2BFD4EB0C0541EA045170BD41F4801197
:1005A0004FF0000E013C00F3AB8014F1360FDEBFBC
:1005B000002001F0004170BDC4F10004203C35DA98
:1005C0000C341BDC04F11404C4F1200500FA05F31B
:1005D00020FA04F001FA05F240EA020001F00042BC
:1005E00021F0004110EBD37021FA04F642EB060132
:1005F0005EEA430E08BF20EAD37070BDC4F10C045C
:10060000C4F1200500FA04F320FA05F001FA04F21F
:1006100040EA020001F0004110EBD37041F100010B
:100620005EEA430E08BF20EAD37070BDC4F1200516
:1006300000FA05F24EEA020E20FA04F301FA05F27E
:1006400043EA020321FA04F001F0004121FA04F226
:1006500020EA020000EBD3705EEA430E08BF20EAF6
:10066000D37070BD94F0000F0FD101F00046400030
:1006700041EB010111F4801F08BF013CF7D041EAB2
:10068000060195F0000F18BF704703F000465200B6
:1006900043EB030313F4801F08BF013DF7D043EA87
:1006A0000603704794EA0C0F0CEA135518BF95EA3D
:1006B0000C0F0CD050EA410618BF52EA4306D1D1C4
:1006C00081EA030101F000414FF0000070BD50EAE3
:1006D000410606BF1046194652EA430619D094EA6D
:1006E0000C0F02D150EA013613D195EA0C0F05D157
:1006F00052EA03361CBF104619460AD181EA0301AB
:1007000001F0004141F0FE4141F470014FF0000062
:1007100070BD41F0FE4141F4780170BD70B54FF0FD
:10072000FF0C4CF4E06C1CEA11541DBF1CEA13557D
:1007300094EA0C0F95EA0C0F00F0A7F8A4EB05045F
:1007400081EA030E52EA03354FEA013100F0888056
:100750004FEA03334FF0805545EA131343EA12631F
:100760004FEA022245EA111545EA10654FEA0026D4
:100770000EF000419D4208BF964244F1FD0404F58D
:10078000407402D25B084FEA3202B61A65EB0305E9
:100790005B084FEA32024FF480104FF4002CB6EBA6
:1007A000020E75EB030E22BFB61A754640EA0C0026
:1007B0005B084FEA3202B6EB020E75EB030E22BF66
:1007C000B61A754640EA5C005B084FEA3202B6EBA7
:1007D000020E75EB030E22BFB61A754640EA9C0066
:1007E0005B084FEA3202B6EB020E75EB030E22BF36
:1007F000B61A754640EADC0055EA060E18D04FEAF4
:10080000051545EA16754FEA06164FEAC30343EA93
:1008100052734FEAC2025FEA1C1CC0D111F4801F60
:100820000BD141EA00014FF000004FF0004CB6E759
:1008300011F4801F04BF01430020B4F1FD0C88BFF8
:10084000BCF5E06F3FF6AFAEB5EB030C04BFB6EB03
:10085000020C5FEA500C50F1000041EB045170BDF6
:100860000EF0004E4EEA113114EB5C04C2BFD4EB23
:100870000C0541EA045170BD41F480114FF0000EA7
:10088000013C90E645EA060E8DE60CEA135594EA23
:100890000C0F08BF95EA0C0F3FF43BAF94EA0C0F26
:1008A0000AD150EA01347FF434AF95EA0C0F7FF49B
:1008B00025AF104619462CE795EA0C0F06D152EAEF
:1008C00003353FF4FDAE1046194622E750EA4106D3
:1008D00018BF52EA43067FF4C5AE50EA41047FF4E4
:1008E0000DAF52EA43057FF4EBAE12E74FEA410247
:1008F00012F5001215D211D56FF47873B3EB625272
:1009000012D94FEAC12343F0004343EA505311F098
:10091000004F23FA02F018BF404270474FF000002A
:10092000704750EA013005D111F0004008BF6FF068
:10093000004070474FF00000704700BF80B483B0A4
:1009400000AF0346FB71FB799AB2094B1B88134435
:100950009AB2074B1A80064B1B88C3F308039AB25E
:10096000034B1A8000BF0C37BD4680BC704700BFE8
:100970002802002080B485B000AF0346FB80FB88CE
:10098000C3F30803FB81FB89034AD35C1846143781
:10099000BD4680BC704700BF2800002080B400AF77
:1009A000094B1B8803F50073084A12889B1A5A42A8
:1009B000C3F30803C2F3080258BF53429BB2184660
:1009C000BD4680BC704700BF2A02002028020020DC
:1009D00080B500AFFFF7E2FF0346C3F500739BB29B
:1009E000184680BD80B584B000AF78600B46FB70C0
:1009F000FFF7EEFF03461A46FB789BB29A4201D2FC
:100A000000233BE01F4B1B881A46FB781344B3F5C9
:100A1000007F12DA1B4B1B881A461B4B1344FA78D3
:100A20007968184604F06EFFFB789AB2154B1B8864
:100A300013449AB2134B1A801FE0124B1B88C3F564
:100A40000073FB810F4B1B881A460F4B1344FA8926
:100A50007968184604F056FFFB897A68D118FA784D
:100A6000FB89D31A1A46084804F04CFFFB789AB267
:100A7000FB89D31A9AB2034B1A80FB7818461037B9
:100A8000BD4680BD2A0200202800002090B587B016
:100A900000AF7860FFF782FF0346082B01D80023E0
:100AA00095E04D4B1B881846FFF764FF0346EF2B7C
:100AB00009D1494B1B8801339BB21846FFF75AFFF7
:100AC0000346012B03D00120FFF738FF7EE0424BA5
:100AD0001B8807339BB21846FFF74CFF03461B02E7
:100AE0003B823D4B1B8808339BB21846FFF742FF01
:100AF00003461A463B8A13433B823B8A03F10804B0
:100B0000FFF74CFF03469C4201DB00235FE000231C
:100B1000FB823B8A0733FB810623BB820FE02E4B0F
:100B20001A88BB8A13449BB21846FFF723FF03467B
:100B30001A46FB8A1344FB82BB8A0133BB82BA8A02
:100B4000FB899A42EBD3244B1A88FB8913449BB24E
:100B50001846FFF70FFF03461B02BB811E4B1A8886
:100B6000FB8913449BB201339BB21846FFF702FF87
:100B700003461A46BB891343BB81FA8ABB899A4252
:100B800003D00120FFF7DAFE20E03B8A09337B81A6
:100B900000237B820FE0104B1A887B8A134499B2A2
:100BA0007B8A7A68D4180846FFF7E4FE0346237070
:100BB0007B8A01337B827A8A7B899A42EBD37B8959
:100BC000DBB21846FFF7BAFE7B8900E062E7184601
:100BD0001C37BD4690BD00BF2802002080B483B002
:100BE00000AF78607B6806331B78072B19D17B68D0
:100BF00008331B78082B11D17B6809331B78002B35
:100C000009D17B680A331B78052B0DD17B680C3327
:100C10001B785BB208E06FF0010305E06FF00203A0
:100C200002E04FF0FF33FFE718460C37BD4680BCAB
:100C30007047000080B588B000AF07F110030022B4
:100C40001A605A609A60DA60334B9B69324A43F00B
:100C500020039361304B9B6903F02003FB60FB682A
:100C60002D4B9B692C4A43F0080393612A4B9B69E7
:100C700003F00803BB60BB68274B9B69264A43F01F
:100C800004039361244B9B6903F004037B607B683E
:100C900000224FF48251214801F07FF840F20243D4
:100CA0003B611F4B7B610223BB6107F110031946B7
:100CB0001A4800F0D7FE4FF480533B6101237B615B
:100CC0000023BB610223FB6107F11003194613489F
:100CD00000F0C8FE40233B6101237B610223BB611E
:100CE0000223FB6107F1100319460C4800F0BAFE1D
:100CF00000220F21072000F0BEFD072000F0D7FDE5
:100D000000220F21282000F0B6FD282000F0CFFDA2
:100D100000BF2037BD4680BD00100240000C0140DE
:100D20000000111080B500AF124B134A1A60114B2E
:100D3000124A5A600F4B00229A600E4B0022DA6072
:100D40000C4B4FF480421A610A4B00225A61094B46
:100D500000229A61074B0022DA61064B00221A62D8
:100D6000044801F04BF80346002B01D000F0AFF926
:100D700000BF80BD2C02002000540040801A0600F5
:100D800080B58AB000AF786007F1140300221A60C2
:100D90005A609A60DA607B681B68254A934242D1A8
:100DA000244B9B69234A43F008039361214B9B69C1
:100DB00003F008033B613B694FF440737B611223EE
:100DC000BB6103233B6207F1140319461A4800F084
:100DD00049FE1A4B5B687B627B6A43F0E0637B628F
:100DE0007B6A43F002037B62144A7B6A5360114BB7
:100DF000DB69104A43F40013D3610E4BDB6903F443
:100E00000013FB60FB68002200211F2000F033FD6F
:100E10001F2000F04CFD00220021202000F02BFDBF
:100E2000202000F044FD00BF2837BD4680BD00BF34
:100E30000054004000100240000C0140000001403E
:100E400080B582B000AF0346FB800A2000F018FC9A
:100E50000221124800F08AFF0346012B0BD1104BF0
:100E60001B78002B03D10E4B01221A7012E00C4BA1
:100E700000221A700EE04FF48061084800F076FFFF
:100E80000346012B06D14FF0FF33112205490648D6
:100E900003F0BBFE00BF0837BD4680BD000C01401B
:100EA0008002002038590008D004002080B582B0AC
:100EB00000AF78600B467B807B680B4A93420ED173
:100EC0007B88DBB219460948FFF78CFD4FF480722E
:100ED0000649054803F024FF054B05221A7000BFA0
:100EE0000837BD4680BD00BFD0040020840200202A
:100EF0008002002080B582B000AF00F05FFB00F000
:100F0000A1F8FFF797FEFFF70DFF00F0ADF900F035
:100F100081FA142000F0B4FB0021424803F0F8F9F4
:100F20004FF480724049414803F0FAFE00F016FB8E
:100F300000F02CFBC82000F0A3FB00F01BFB00F02E
:100F400031FB4FF0FF3310223949384803F05DFE82
:100F5000384B1B78012B0CD10A2000F04DF940F6DC
:100F6000B83000F08DFB6E2000F046F9314B0022C6
:100F70001A703148FFF78AFD0346DAB22F4B1A7018
:100F80002E4B1B78002BE3D02B48FFF727FE0346A0
:100F90001A462B4B1A702A4B93F90030002B0FDBAB
:100FA00000F0DCFA00F0F2FA4FF4FA7000F068FB9F
:100FB00000F0E0FA00F0F6FA1E4B01221A7023E06E
:100FC0001F4B93F9003013F1020F1AD100237B60FD
:100FD00013E000F0C3FA00F0D9FA642000F050FBEF
:100FE00000F0C8FA00F0DEFA642000F049FB114B73
:100FF00000221A707B6801337B607B68022BE8DD7E
:1010000002E00C4B00221A704FF0FF331022084907
:10101000064803F0FAFD4FF480720021064804F000
:1010200045FC95E78804002084020020D0040020BD
:101030004C59000880020020840300208404002012
:101040008504002080B590B000AF07F11803282276
:101050000021184604F02AFC3B1D00221A605A6049
:101060009A60DA601A610123BB614FF48033FB613F
:1010700000233B620123BB6202237B634FF4803376
:10108000BB634FF4E013FB6307F11803184602F04B
:10109000DFFC0346002B01D000F019F80F237B6022
:1010A0000223BB600023FB604FF480633B6100239D
:1010B0007B613B1D0221184602F04CFF0346002BCA
:1010C00001D000F004F800BF4037BD4680BD80B4B9
:1010D00000AF72B600BF00BFFDE7000080B485B06E
:1010E00000AF154B9B69144A43F001039361124B07
:1010F0009B6903F00103BB60BB680F4BDB690E4AC1
:1011000043F08053D3610C4BDB6903F080537B6069
:101110007B680A4B5B68FB60FB6823F0E063FB6065
:10112000FB6843F00073FB60044AFB68536000BF38
:101130001437BD4680BC70470010024000000140DB
:1011400080B400AF00BFFDE780B400AF00BFFDE793
:1011500080B400AF00BFFDE780B400AF00BFFDE783
:1011600080B400AF00BFFDE780B400AF00BFBD4654
:1011700080BC704780B400AF00BFBD4680BC7047E4
:1011800080B400AF00BFBD4680BC704780B500AFE3
:1011900000F05AFA00BF80BD80B500AF022000F019
:1011A00015FE00BF80BD000080B500AF024800F012
:1011B0007DFF00BF80BD00BF2C02002080B500AFC6
:1011C000024801F0C6F800BF80BD00BF2C0200201D
:1011D00080B500AF024803F001FE00BF80BD00BF34
:1011E000D004002080B500AF4FF4806000F0EEFD29
:1011F00000BF80BD0000000080B584B000AF034692
:10120000FB71FB792D331846FFF7F4F810A3D3E9EF
:101210000023FFF783FA02460B4610461946FFF7F4
:1012200065FB0346FB60FB68312B02DC3223FB606D
:1012300004E0FB68FA2B01DDFA23FB60064B1B6818
:10124000FA685A6300BF1037BD4680BDAFF3008017
:10125000CDCCCCCCCCCCEC3F8804002080B400AF0B
:1012600000BFBD4680BC704780B592B000AF07F1AB
:10127000400300221A605A6007F1240300221A601A
:101280005A609A60DA601A615A619A613B1D2022A5
:101290000021184604F00AFB334B344A1A60324BE3
:1012A00040F2CF225A60304B00229A602E4B40F21F
:1012B000CF72DA602C4B00221A612B4B00225A614C
:1012C000294B00229A61284802F0D2FF0346002BE6
:1012D00001D0FFF7FCFE00233B6400237B6407F191
:1012E00040031946204803F091FB0346002B01D030
:1012F000FFF7EDFE60237B620023BB620023FB62ED
:1013000000233B6300237B630023BB630023FB6359
:1013100007F1240300221946134803F09BF8034603
:10132000002B01D0FFF7D3FE00237B600023BB60BE
:101330000023FB6000233B6100237B614FF40053DB
:10134000BB6100233B623B1D1946074803F0BCFB11
:101350000346002B01D0FFF7BAFE034800F026F841
:1013600000BF4837BD4680BD88040020002C0140E6
:1013700080B485B000AF78607B681B68094A9342EF
:101380000BD1094B9B69084A43F400639361064BF8
:101390009B6903F40063FB60FB6800BF1437BD4624
:1013A00080BC7047002C01400010024080B588B01E
:1013B00000AF786007F1100300221A605A609A604B
:1013C000DA607B681B68104A934218D10F4B9B6907
:1013D0000E4A43F0040393610C4B9B6903F0040332
:1013E000FB60FB684FF480733B6102237B61022347
:1013F000FB6107F110031946054800F033FB00BFFD
:101400002037BD4680BD00BF002C014000100240C7
:101410000008014080B500AF114B124A1A60104B12
:101420004FF461425A600E4B00229A600C4B00222E
:10143000DA600B4B00221A61094B0C225A61084BEF
:1014400000229A61064B0022DA61054803F08DFB09
:101450000346002B01D0FFF73AFE00BF80BD00BF5E
:10146000D00400200038014080B588B000AF78601B
:1014700007F1100300221A605A609A60DA607B68F4
:101480001B68204A934239D11F4B9B691E4A43F483
:10149000804393611C4B9B6903F48043FB60FB68B2
:1014A000194B9B69184A43F004039361164B9B69DF
:1014B00003F00403BB60BB684FF400733B6102237D
:1014C0007B610323FB6107F1100319460F4800F00D
:1014D000C9FA4FF480633B6100237B610023BB6149
:1014E00007F110031946094800F0BCFA0022002158
:1014F000252000F0C0F9252000F0D9F900BF2037E1
:10150000BD4680BD00380140001002400008014087
:10151000FFF7A4FE0B480C490C4A002302E0D45804
:10152000C4500433C4188C42F9D3094A094C00232F
:1015300001E013600432A242FBD304F0BFF9FFF7CD
:10154000D9FC7047000000200C00002090590008D2
:101550000C0000201C050020FEE7000080B500AF55
:1015600000224FF48051024800F017FC00BF80BDFC
:10157000000C014080B500AF01224FF480510248B9
:1015800000F00BFC00BF80BD000C014080B500AF37
:1015900000224021024800F000FC00BF80BD00BFD7
:1015A000000C014080B500AF01224021024800F04C
:1015B000F4FB00BF80BD00BF000C014080B500AF50
:1015C000084B1B68074A43F010031360032000F028
:1015D00047F9052000F008F8FFF780FD00231846C2
:1015E00080BD00BF0020024080B582B000AF7860AF
:1015F000124B1A68124B1B7819464FF47A73B3FBDF
:10160000F1F3B2FBF3F3184600F05FF90346002B49
:1016100001D001230EE07B680F2B0AD800227968E5
:101620004FF0FF3000F027F9064A7B681360002373
:1016300000E0012318460837BD4680BD00000020A9
:10164000080000200400002080B400AF054B1B7888
:101650001A46054B1B681344034A136000BFBD467E
:1016600080BC7047080000201805002080B400AF3F
:10167000024B1B681846BD4680BC70471805002009
:1016800080B584B000AF7860FFF7F0FFB8607B688A
:10169000FB60FB68B3F1FF3F05D00A4B1B781A468D
:1016A000FB681344FB6000BFFFF7E0FF0246BB6826
:1016B000D31AFA689A42F7D800BF00BF1037BD4668
:1016C00080BD00BF0800002080B485B000AF786006
:1016D0007B6803F00703FB600C4BDB68BB60BA68F8
:1016E0004FF6FF031340BB60FB681A02BB6813434D
:1016F00043F0BF6343F40033BB60044ABB68D3606C
:1017000000BF1437BD4680BC704700BF00ED00E04D
:1017100080B400AF044BDB681B0A03F007031846D4
:10172000BD4680BC704700BF00ED00E080B483B0D0
:1017300000AF0346FB7197F90730002B0BDBFB79F9
:1017400003F01F02064997F907305B09012000FAF0
:1017500002F241F8232000BF0C37BD4680BC704721
:1017600000E100E080B483B000AF03463960FB7154
:1017700097F90730002B0ADB3B68DAB20C4997F97E
:1017800007301201D2B20B4483F800230AE03B6811
:10179000DAB20849FB7903F00F03043B1201D2B21D
:1017A0000B441A7600BF0C37BD4680BC704700BFA3
:1017B00000E100E000ED00E080B489B000AFF86027
:1017C000B9607A60FB6803F00703FB61FB69C3F152
:1017D0000703042B28BF0423BB61FB690433062BDA
:1017E00002D9FB69033B00E000237B614FF0FF322D
:1017F000BB6902FA03F3DA43BB681A407B699A407B
:101800004FF0FF317B6901FA03F3D9437B680B404A
:10181000134318462437BD4680BC704780B582B05C
:1018200000AF78607B68013BB3F1807F01D3012377
:101830000FE00A4A7B68013B53600F214FF0FF30F5
:10184000FFF790FF054B00229A60044B07221A60B5
:10185000002318460837BD4680BD00BF10E000E0F9
:1018600080B582B000AF78607868FFF72DFF00BFC9
:101870000837BD4680BD80B586B000AF0346B9606D
:101880007A60FB7300237B61FFF742FF78617A681F
:10189000B9687869FFF790FF024697F90F30114653
:1018A0001846FFF75FFF00BF1837BD4680BD80B503
:1018B00082B000AF0346FB7197F907301846FFF777
:1018C00035FF00BF0837BD4680BD80B582B000AF90
:1018D00078607868FFF7A2FF034618460837BD46D0
:1018E00080BD80B485B000AF78600023FB737B6857
:1018F00093F82130DBB2022B08D07B6804229A6374
:101900007B68002283F82020012320E07B681B688D
:101910001A687B681B6822F00E021A607B681B68DD
:101920001A687B681B6822F001021A607B681A6CD7
:101930007B68DB6B012101FA02F25A607B680122AD
:1019400083F821207B68002283F82020FB7B184647
:101950001437BD4680BC704780B584B000AF786056
:101960000023FB737B6893F82130DBB2022B05D098
:101970007B6804229A630123FB7351E07B681B6838
:101980001A687B681B6822F00E021A607B681B686D
:101990001A687B681B6822F001021A607B681B686A
:1019A000224A934229D07B681B68214A934222D065
:1019B0007B681B681F4A93421AD07B681B681E4ACB
:1019C000934212D07B681B681C4A93420AD07B6802
:1019D0001B681B4A934202D14FF480130EE04FF074
:1019E00080730BE04FF4803308E04FF4805305E040
:1019F0004FF4807302E0102300E00123114A53608A
:101A00007B68012283F821207B68002283F8202054
:101A10007B685B6B002B03D07B685B6B78689847B7
:101A2000FB7B18461037BD4680BD00BF0800024052
:101A30001C000240300002404400024058000240B6
:101A40006C0002400000024080B483B000AF7860B8
:101A50007B6893F82130DBB218460C37BD4680BC5A
:101A60007047000080B48BB000AF7860396000230D
:101A70007B6200233B6269E101227B6A02FA03F385
:101A8000FB613B681B68FA691340BB61BA69FB697B
:101A90009A4240F058813B685B689A4A93425ED014
:101AA000984A934275D8984A934258D0964A93429E
:101AB0006FD8964A934252D0944A934269D8944A36
:101AC00093424CD0924A934263D8924A934246D072
:101AD000904A93425DD8122B2AD8122B59D801A2D2
:101AE00052F823F05F1B0008391B00084B1B00084D
:101AF0008D1B0008931B0008931B0008931B000814
:101B0000931B0008931B0008931B0008931B0008FD
:101B1000931B0008931B0008931B0008931B0008ED
:101B2000931B0008931B0008411B0008551B00086D
:101B3000794A934213D02CE03B68DB683B6229E092
:101B40003B68DB6804333B6224E03B68DB680833B6
:101B50003B621FE03B68DB680C333B621AE03B688A
:101B60009B68002B02D104233B6213E03B689B6817
:101B7000012B05D108233B627B68FA691A6109E0F1
:101B800008233B627B68FA695A6103E000233B62E9
:101B900000E000BFBB69FF2B01D87B6801E07B68D8
:101BA00004337B61BB69FF2B02D87B6A9B0002E098
:101BB0007B6A083B9B003B617B691A680F213B698C
:101BC00001FA03F3DB431A40396A3B6901FA03F374
:101BD0001A437B691A603B685B6803F08053002BF3
:101BE00000F0B1804D4B9B694C4A43F00103936177
:101BF0004A4B9B6903F00103BB60BB68484A7B6AA0
:101C00009B08023352F82330FB607B6A03F0030326
:101C10009B000F2202FA03F3DB43FA681340FB60D8
:101C20007B68404A934213D07B683F4A93420DD071
:101C30007B683E4A934207D07B683D4A934201D17C
:101C4000032306E0042304E0022302E0012300E072
:101C500000237A6A02F0030292009340FA68134369
:101C6000FB602F497B6A9B080233FA6841F8232006
:101C70003B685B6803F48013002B06D02D4B9A68F9
:101C80002C49BB6913438B6006E02A4B9A68BB69F9
:101C9000DB43284913408B603B685B6803F4001307
:101CA000002B06D0234BDA682249BB691343CB6073
:101CB00006E0204BDA68BB69DB431E491340CB606A
:101CC0003B685B6803F40033002B06D0194B5A685D
:101CD0001849BB6913434B6006E0164B5A68BB6951
:101CE000DB43144913404B603B685B6803F480336B
:101CF000002B21D00F4B1A680E49BB6913430B60B0
:101D000021E000BF0000321000003110000022105E
:101D100000002110000012100000111000100240FD
:101D20000000014000080140000C0140001001408B
:101D300000140140000401400B4B1A68BB69DB43EF
:101D4000094913400B607B6A01337B623B681A6868
:101D50007B6A22FA03F3002B7FF48EAE00BF00BF34
:101D60002C37BD4680BC70470004014080B485B06C
:101D700000AF78600B467B807B689A687B88134055
:101D8000002B02D00123FB7301E00023FB73FB7BDC
:101D900018461437BD4680BC704780B483B000AF8E
:101DA00078600B467B8013467B707B78002B03D0DA
:101DB0007A887B681A6103E07B881A047B681A6161
:101DC00000BF0C37BD4680BC7047000080B582B0B4
:101DD00000AF0346FB80084B5A69FB881340002B79
:101DE00006D0054AFB885361FB881846FFF728F8A0
:101DF00000BF0837BD4680BD0004014080B584B0F7
:101E000000AF78607B68002B01D101232BE17B6858
:101E100093F83D30DBB2002B06D17B68002283F8BB
:101E20003C207868FEF7ACFF7B68242283F83D20D5
:101E30007B681B681A687B681B6822F001021A60C5
:101E40007B681B681A687B681B6842F400421A6052
:101E50007B681B681A687B681B6822F400421A6062
:101E600002F0C0F9F8607B685B68814A934207D84A
:101E7000FB68804A934294BF01230023DBB206E053
:101E8000FB687D4A934294BF01230023DBB2002B01
:101E900001D00123E7E0FB68784AA2FB03239B0CF7
:101EA000BB607B681B685B6823F03F017B681B6835
:101EB000BA680A435A607B681B681B6A23F03F01BB
:101EC0007B685B686A4A934202D8BB68013309E0C9
:101ED000BB684FF4967202FB03F3694AA2FB03232B
:101EE0009B0901337A6812680B4313627B681B6895
:101EF000DB6923F44F4222F0FF027B685B685C4998
:101F00008B4219D8FB68591E7B685B685B00B1FB8C
:101F1000F3F3591C40F6FC730B40002B0AD0FB680E
:101F2000591E7B685B685B00B1FBF3F30133C3F3BD
:101F30000B0351E004234FE07B689B68002B11D119
:101F4000FB68581E7B6859680B465B000B44B0FB6E
:101F5000F3F30133C3F30B03002B0CBF0123002366
:101F6000DBB212E0FB68581E7B6859680B469B0089
:101F70000B4499000B44B0FBF3F30133C3F30B03A1
:101F8000002B0CBF01230023DBB2002B01D0012367
:101F900022E07B689B68002B0ED1FB68581E7B6893
:101FA00059680B465B000B44B0FBF3F30133C3F3FA
:101FB0000B0343F400430FE0FB68581E7B6859682D
:101FC0000B469B000B4499000B44B0FBF3F3013329
:101FD000C3F30B0343F44043796809681343CB61AF
:101FE0007B681B681B6823F0C0017B68DA697B682B
:101FF0001B6A1A437B681B680A431A607B681B686C
:102000009B6823F4034323F0FF037A6811697A681D
:10201000D26811437A6812680B4393607B681B682F
:10202000DB6823F0FF017B685A697B689B691A4370
:102030007B681B680A43DA607B681B681A687B68E8
:102040001B6842F001021A607B6800221A647B68F8
:10205000202283F83D207B6800221A637B680022DF
:1020600083F83E20002318461037BD4680BD00BFD0
:10207000A08601007F841E00FF083D0083DE1B4315
:10208000D34D621080B483B000AF78607B681B686A
:102090005B6903F08003802B03D17B681B680022FF
:1020A0001A6100BF0C37BD4680BC704780B588B050
:1020B00000AF78600023BB617B681B685B687B6155
:1020C0007B68DB6A3B617B6893F83E30FB737B681F
:1020D00093F83D30BB73FB7B102B03D0FB7B402B75
:1020E00040F0B1807B681B689B69BB617B681B68A3
:1020F0005B69FB61FB6903F00103002B0DD13B69B8
:10210000B3F52A0F03D03B69B3F12A4F01D1012364
:1021100000E00023012B00F01481FB6903F00103B0
:10212000002B0BD07B6903F40073002B06D078687A
:1021300001F074FC786800F074FD83E0FB6903F043
:102140000803002B08D07B6903F40073002B03D035
:10215000786800F0EBFD75E0FB6903F00203002BEB
:1021600008D07B6903F40073002B03D0786800F07B
:1021700006FE67E0BB6903F00403002B36D07B68E2
:102180001B685B6803F40063B3F5006F00F0DB804D
:10219000FB6903F08003002B0DD07B6903F480639F
:1021A000002B08D0FB6903F00403002B03D17868EF
:1021B00000F0D4F946E0FB6903F00403002B00F0C3
:1021C000C2807B6903F40073002B00F0BC80BB7BF2
:1021D000212B03D1786800F05DFAB4E0FB7B402B43
:1021E00040F0B180786800F0CBFAACE07B681B6807
:1021F0005B6803F40063B3F5006F00F0A480FB6933
:1022000003F04003002B0DD07B6903F48063002BA7
:1022100008D0FB6903F00403002B03D1786800F0B9
:1022200047FB0FE0FB6903F00403002B00F08B80F9
:102230007B6903F40073002B00F08580786800F060
:10224000FFFB80E07FE07B681B6C002B04D07B6889
:102250001B685B69FB6107E07B681B689B69BB616E
:102260007B681B685B69FB61FB6903F00203002B61
:1022700011D07B6903F40073002B0CD07B681B6CBE
:10228000002B03D07B681B689B69BB61B9697868C8
:1022900000F0CCFF5AE0FB6903F01003002B08D0DC
:1022A0007B6903F40073002B03D0786801F006F813
:1022B0004CE0BB7B212B02D0BB7B292B20D1FB69BF
:1022C00003F08003002B0DD07B6903F48063002BA7
:1022D00008D0FB6903F00403002B03D1786800F0F9
:1022E000E9FE32E0FB6903F00403002B2DD07B698B
:1022F00003F40073002B28D0786800F018FF24E066
:10230000FB6903F04003002B0DD07B6903F480636D
:10231000002B08D0FB6903F00403002B03D178687D
:1023200000F025FF12E0FB6903F00403002B0DD041
:102330007B6903F40073002B08D0786800F055FF28
:1023400004E000BF02E000BF00E000BF2037BD4650
:1023500080BD80B58AB000AF78607B681B685B6920
:102360003B627B681B685B68FB6100237B627B6868
:1023700093F83E30FB763B6A03F48073002B15D054
:10238000FB6903F48073002B10D07B6A43F00103D8
:102390007B627B681B686FF480725A617B681B6884
:1023A0001A687B681B6842F400421A603B6A03F4B7
:1023B0000073002B0DD0FB6903F48073002B08D051
:1023C0007B6A43F002037B627B681B686FF40072D8
:1023D0005A613B6A03F48063002B3ED0FB6903F42F
:1023E0008073002B39D0FB7EBB767B685B8D9BB204
:1023F0007B617B6893F83D30FB747B681B6BFB60F3
:10240000BB7E202B12D17B69002B0FD1FB7C212BB3
:1024100008D0FB7C292B05D0FB7C282B06D1FB6840
:10242000212B03D1786801F079F816E07B681B68EE
:102430006FF480625A617B6A43F004037B62FB7E27
:10244000102B02D0FB7E402B07D17B681B681A68DB
:102450007B681B6842F400721A603B6A03F40063F5
:10246000002B0DD0FB6903F48073002B08D07B6A2E
:1024700043F008037B627B681B686FF400625A615B
:102480007B6A002B08D07B681A6C7B6A1A437B68D6
:102490001A64786801F0B6F800BF2837BD4680BDE1
:1024A00080B483B000AF786000BF0C37BD4680BCFD
:1024B000704780B483B000AF786000BF0C37BD4672
:1024C00080BC704780B483B000AF786000BF0C3729
:1024D000BD4680BC704780B483B000AF786000BF59
:1024E0000C37BD4680BC704780B483B000AF7860C5
:1024F0000B46FB7013463B8000BF0C37BD4680BCCB
:10250000704780B483B000AF786000BF0C37BD4621
:1025100080BC704780B483B000AF786000BF0C37D8
:10252000BD4680BC704780B483B000AF786000BF08
:102530000C37BD4680BC704780B483B000AF786074
:1025400000BF0C37BD4680BC704780B483B000AF7D
:10255000786000BF0C37BD4680BC704780B584B042
:1025600000AF78607B6893F83D30FB737B6893F82D
:102570003E30BB737B68DB6ABB607B681B8D002BC6
:1025800050D1FB7B212B4DD1BB68082B1DD0BB68E4
:10259000202B1AD0BB6813F5803F16D07B681B68D0
:1025A0005A687B681B6822F4E0625A607B681122DB
:1025B0001A637B68002283F83E207B68202283F820
:1025C0003D207868FFF76CFF60E07B681B685A6805
:1025D0007B681B6822F4E0625A607B681B681A689B
:1025E0007B681B6842F400721A607B6800221A63E1
:1025F0007B68202283F83D207B6893F83E30DBB275
:10260000402B07D17B68002283F83E207868FFF7D3
:1026100081FF3BE07B68002283F83E207868FFF76B
:102620003FFF33E0FB7B212B05D0BB7B402B2DD123
:10263000FB7B222B2AD17B685B8D9BB2002B08D1C0
:102640007B681B685A687B681B6822F480625A604A
:102650001CE07B6893F83E30DBB2402B03D17868F6
:1026600000F08EF812E07B685B6A1A787B681B6862
:102670001A617B685B6A5A1C7B685A627B685B8D57
:102680009BB2013B9AB27B685A85FFE700BF1037C7
:10269000BD4680BD80B584B000AF78607B68DB6AE2
:1026A000FB607B6893F83D30DBB2212B64D17B6803
:1026B0005B8D9BB2002B12D07B685B6A1A787B68BB
:1026C0001B681A617B685B6A5A1C7B685A627B686C
:1026D0005B8D9BB2013B9AB27B685A854CE0FB68EC
:1026E000082B1DD0FB68202B1AD0FB6813F5803F08
:1026F00016D07B681B685A687B681B6822F4E0620E
:102700005A607B6811221A637B68002283F83E209E
:102710007B68202283F83D207868FFF7C1FE2BE01C
:102720007B681B685A687B681B6822F4E0625A6009
:102730007B681B681A687B681B6842F400721A6029
:102740007B6800221A637B68202283F83D207B6827
:1027500093F83E30DBB2402B07D17B68002283F830
:102760003E207868FFF7D6FE06E07B68002283F8FB
:102770003E207868FFF794FE00BF1037BD4680BD4D
:1027800080B584B000AF78607B6893F83D30FB7310
:102790007B681B6D002B1DD17B68DB6C012B0BD183
:1027A0007B689B6CDAB27B681B681A617B681B6D67
:1027B0009A1C7B681A6577E07B689B6C9BB21B1246
:1027C000DAB27B681B681A617B681B6D5A1C7B68D8
:1027D0001A6569E07B681B6D012B0BD17B689B6CD4
:1027E000DAB27B681B681A617B681B6D5A1C7B68B8
:1027F0001A6559E07B681B6D022B52D1FB7B222BA3
:102800000DD17B681B681A687B681B6842F4807274
:102810001A607B681B6D5A1C7B681A6544E07B68F4
:102820005B8D9BB2002B15D0FB7B212B12D17B68DB
:102830005B6A1A787B681B681A617B685B6A5A1C42
:102840007B685A627B685B8D9BB2013B9AB27B6866
:102850005A8529E07B685B8D9BB2002B24D1FB7BE2
:10286000212B21D17B681B685A687B681B6822F486
:10287000E0625A607B681B681A687B681B6842F4D8
:1028800000721A607B6800221A637B68202283F83A
:102890003D207B68002283F83E207868FFF73AFEEF
:1028A00002E07868FFF7EEFB00BF1037BD4680BD41
:1028B00080B584B000AF78607B6893F83D30DBB2C0
:1028C000222B40F0B9807B68DB6AFB607B685B8D04
:1028D0009BB2BB60BB68032B21D97B681B681A695C
:1028E0007B685B6AD2B21A707B685B6A5A1C7B6831
:1028F0005A627B685B8D9BB2013B9AB27B685A85BA
:102900007B685B8D9BB2032B40F096807B681B68D5
:102910005A687B681B6822F480625A608CE07B688E
:10292000DB6A022B7FD0BB68012B02D0BB68002B77
:1029300079D1786801F040F80346002B4CD17B68D0
:102940001B681A687B681B6822F480621A607B68C7
:102950001B685A687B681B6822F4E0625A607B68D7
:102960001B681A697B685B6AD2B21A707B685B6A03
:102970005A1C7B685A627B685B8D9BB2013B9AB2A2
:102980007B685A857B68202283F83D207B6893F81A
:102990003E30DBB2402B0AD17B68002283F83E2018
:1029A0007B6800221A637868FFF7BDFD44E07B680E
:1029B000002283F83E20FB68082B02D0FB68202B06
:1029C00003D17B6800221A6302E07B6812221A633B
:1029D0007868FFF76EFD2FE07B681B685A687B689C
:1029E0001B6822F4E0625A607B681B681A697B6886
:1029F0005B6AD2B21A707B685B6A5A1C7B685A6247
:102A00007B685B8D9BB2013B9AB27B685A857B6881
:102A1000202283F83D207B68002283F83E207868DE
:102A2000FFF78AFD08E07B681B685A687B681B68B3
:102A300022F480625A60FFE700BF1037BD4680BDB8
:102A400080B584B000AF78607B68DB6AFB607B6830
:102A50005B8D9BB2042B1BD17B681B685A687B681B
:102A60001B6822F480625A607B681B681A697B6865
:102A70005B6AD2B21A707B685B6A5A1C7B685A62C6
:102A80007B685B8D9BB2013B9AB27B685A85C4E040
:102A90007B685B8D9BB2032B29D17B681B685A68CE
:102AA0007B681B6822F480625A60FB68042B0AD0A2
:102AB000FB68022B07D07B681B681A687B681B6861
:102AC00022F480621A607B681B681A697B685B6A03
:102AD000D2B21A707B685B6A5A1C7B685A627B6848
:102AE0005B8D9BB2013B9AB27B685A8595E07B680F
:102AF0005B8D9BB2022B7DD1FB68012B02D0FB6862
:102B0000102B08D17B681B681A687B681B6822F44D
:102B100080621A6016E0FB68042B02D0FB68022B6F
:102B200008D17B681B681A687B681B6842F4806266
:102B30001A6007E07B681B681A687B681B6842F4B0
:102B400000721A607B681B681A697B685B6AD2B284
:102B50001A707B685B6A5A1C7B685A627B685B8D63
:102B60009BB2013B9AB27B685A857B681B681A69E5
:102B70007B685B6AD2B21A707B685B6A5A1C7B689E
:102B80005A627B685B8D9BB2013B9AB27B685A8527
:102B90007B681B685A687B681B6822F440725A6025
:102BA0007B68202283F83D207B6893F83E30DBB2BF
:102BB000402B0AD17B68002283F83E207B680022EC
:102BC0001A637868FFF7AFFC27E07B68002283F880
:102BD0003E20FB68082B02D0FB68202B03D17B68CA
:102BE00000221A6302E07B6812221A637868FFF7FA
:102BF00060FC12E07B681B681A697B685B6AD2B272
:102C00001A707B685B6A5A1C7B685A627B685B8DB2
:102C10009BB2013B9AB27B685A8500BF1037BD4614
:102C200080BD80B483B000AF78607B6893F83E309D
:102C3000DBB2402B17D17B681B6D002B09D17B6861
:102C40005B6CDBB21A467B681B6802F0FE021A61FD
:102C500067E07B685B6CDBB243F00103DAB27B6850
:102C60001B681A615DE07B681B69B3F5804F33D147
:102C70007B6893F83D30DBB2212B09D17B685B6C1C
:102C8000DBB21A467B681B6802F0FE021A6108E09C
:102C90007B685B6CDBB243F00103DAB27B681B68D4
:102CA0001A617B685B6B002B04D07B685B6B9B6A53
:102CB000002B08D17B689B6B002B32D07B689B6B11
:102CC0009B6A002B2DD07B681B685A687B681B6849
:102CD00042F400625A6024E07B681B6D002B0ED129
:102CE0007B685B6C9BB2DB11DBB203F00603DBB2EB
:102CF00063F00F03DAB27B681B681A6111E07B682E
:102D00001B6D012B0DD17B685B6C9BB2DB11DBB2C1
:102D100003F00603DBB263F00E03DAB27B681B68D4
:102D20001A6100BF0C37BD4680BC704780B483B0C9
:102D300000AF78607B685B6CDAB27B681B681A61F5
:102D40007B685B6B002B04D07B685B6B9B6A002B02
:102D500008D17B689B6B002B0CD07B689B6B9B6ABC
:102D6000002B07D07B681B685A687B681B6842F49D
:102D700000625A6000BF0C37BD4680BC704780B40B
:102D800091B000AF78607B6893F83E3087F83F30B1
:102D90007B68DB6ABB637B681B6B7B637B6893F838
:102DA0003D30DBB2222B40F074817B681B6D002B21
:102DB0000FD197F83F30402B0BD100233B637B684A
:102DC0001B685B693B637B681B689B693B633B6B70
:102DD0006BE17B681B6D002B1DD17B681B69B3F514
:102DE000404F18D10023FB627B681B685B69FB6264
:102DF0007B681B689B69FB62FB6A7B681B681A68BF
:102E00007B681B6842F480721A607B681B6D5A1CD9
:102E10007B681A6549E17B685B8D9BB2002B13D1FF
:102E20000023BB627B681B685B69BB627B681B68B5
:102E30009B69BB62BB6A7B681B681A687B681B68FE
:102E400042F400721A6020E17B685B8D9BB2012B1B
:102E500040F08A80BB6B13F5803F37D17B681B68DD
:102E60001A687B681B6822F480621A607B681B68A2
:102E70005B6803F40063B3F5006F13D17B681B68D4
:102E80001A687B681B6822F480621A6000237B62E8
:102E90007B681B685B697B627B681B689B697B62E4
:102EA0007B6AF2E000233B627B681B685B693B62E4
:102EB0007B681B689B693B623B6A7B681B681A687E
:102EC0007B681B6842F400721A60DEE0BB6B082B63
:102ED0002ED0BB6B202B2BD07B6B122B02D1BB6B6C
:102EE000012B25D1BB6B042B0ED0BB6B022B0BD05F
:102EF000BB6B102B08D07B681B681A687B681B684B
:102F000022F480621A6007E07B681B681A687B689D
:102F10001B6842F480621A600023FB617B681B68B7
:102F20005B69FB617B681B689B69FB61FB69ACE0CB
:102F30007B681B681A687B681B6822F480621A60D1
:102F40000023BB617B681B685B69BB617B681B6896
:102F50009B69BB61BB697B681B681A687B681B68DF
:102F600042F400721A6090E07B685B8D9BB2022B8A
:102F700058D1BB6B042B21D0BB6B022B1ED0BB6B7B
:102F8000102B1BD07B681B681A687B681B6842F497
:102F900000621A6000237B617B681B685B697B6150
:102FA0007B681B689B697B617B697B681B681A680F
:102FB0007B681B6822F480621A6012E07B681B68E1
:102FC0001A687B681B6842F480621A6000233B61C8
:102FD0007B681B685B693B617B681B689B693B6125
:102FE0003B697B681B685B6803F40063B3F5006FA3
:102FF0004BD1BB6B13F5803F0BD0BB6B012B08D0C3
:10300000BB6B082B05D0BB6B102B02D0BB6B202BEE
:103010003BD17B681B685A687B681B6842F480520E
:103020005A6032E07B681B681A687B681B6842F450
:1030300080621A607B681B685B6803F40063B3F509
:10304000006F17D1BB6B13F5803F0BD0BB6B012B0F
:1030500008D0BB6B082B05D0BB6B102B02D0BB6B11
:10306000202B07D17B681B685A687B681B6842F479
:1030700080525A600023FB607B681B685B69FB60C1
:103080007B681B689B69FB60FB687B6800221A6594
:103090000BE00023BB607B681B685B69BB607B68DF
:1030A0001B689B69BB60BB68FFE700BF4437BD4638
:1030B00080BC704780B584B000AF78607B6893F8BF
:1030C0003D30FB737B685B8D9BB2002B2BD07B6804
:1030D0005B6A1A787B681B681A617B685B6A5A1C9A
:1030E0007B685A627B685B8D9BB2013B9AB27B68BE
:1030F0005A857B685B8D9BB2002B14D1FB7B292BFF
:1031000011D17B681B685A687B681B6822F4806257
:103110005A607B6821221A637B68282283F83D204D
:103120007868FFF7CFF900BF1037BD4680BD80B487
:1031300083B000AF78607B685B8D9BB2002B11D0B1
:103140007B685B6A1A787B681B681A617B685B6ABC
:103150005A1C7B685A627B685B8D9BB2013B9AB2BA
:103160007B685A8500BF0C37BD4680BC704780B570
:1031700084B000AF78607B6893F83D30FB737B6868
:103180005B8D9BB2002B2CD07B681B681A697B6817
:103190005B6AD2B21A707B685B6A5A1C7B685A629F
:1031A0007B685B8D9BB2013B9AB27B685A857B68DA
:1031B0005B8D9BB2002B14D1FB7B2A2B11D17B683A
:1031C0001B685A687B681B6822F480625A607B68BF
:1031D00022221A637B68282283F83D207868FFF753
:1031E0007AF900BF1037BD4680BD80B483B000AF10
:1031F00078607B685B8D9BB2002B12D07B681B686C
:103200001A697B685B6AD2B21A707B685B6A5A1C67
:103210007B685A627B685B8D9BB2013B9AB27B688C
:103220005A8500BF0C37BD4680BC704780B584B05E
:1032300000AF786039600023FB737B6893F83D3002
:10324000DBB203F02803282B25D17B681B685A6862
:103250007B681B6822F480625A603B6803F00403B9
:10326000002B01D10123FB733B6803F08003002B8B
:1032700003D17B68DB68BB8102E07B689B69BB8113
:103280007B68002283F83C20BA89FB7B194678686A
:10329000FFF72AF90EE00023BB607B681B685B69BF
:1032A000BB607B681B689B69BB60BB687B68002256
:1032B00083F83C2000BF1037BD4680BD80B584B088
:1032C00000AF78607B6893F83D30FB737B681B68C8
:1032D0005A687B681B6822F4E0625A600023BB6076
:1032E0007B681B685B69BB607B681B681A687B68CE
:1032F0001B6842F001021A60BB687B681B681A6891
:103300007B681B6822F480621A607B681B685B68BC
:1033100003F40063B3F5006F72D1FB7B222B02D064
:10332000FB7B2A2B35D17B689B6B1B685B689AB251
:103330007B685A857B685B8D9BB2002B05D07B68D0
:103340001B6C43F004027B681A647B681B685A6834
:103350007B681B6822F400625A607B689B6B18468E
:10336000FEF772FB0346012B49D07B689B6B694AD1
:103370005A637B689B6B1846FEF7EEFA0346002BF8
:103380003DD07B689B6B5B6B7A68926B104698476D
:1033900035E07B685B6B1B685B689AB27B685A851B
:1033A0007B685B8D9BB2002B05D07B681B6C43F068
:1033B00004027B681A647B681B685A687B681B6818
:1033C00022F400625A607B685B6B1846FEF73CFB98
:1033D0000346012B14D07B685B6B4E4A5A637B68B3
:1033E0005B6B1846FEF7B8FA0346002B08D07B68E3
:1033F0005B6B5B6B7A68526B1046984700E000BFCE
:103400007B685B8D9BB2002B3ED07B681B685B6941
:1034100003F00403042B12D17B681B681A697B68D4
:103420005B6AD2B21A707B685B6A5A1C7B685A620C
:103430007B685B8D9BB2013B9AB27B685A857B6847
:103440001B685B6903F04003402B12D17B681B684B
:103450001A697B685B6AD2B21A707B685B6A5A1C15
:103460007B685A627B685B8D9BB2013B9AB27B683A
:103470005A857B685B8D9BB2002B05D07B681B6CEB
:1034800043F004027B681A647B681B6C002B03D03A
:10349000786800F0B7F839E0FB7B2A2B09D17B680C
:1034A00000221A637B68282283F83D207868FFF7A2
:1034B00012F87B6893F83D30DBB2282B11D17B6882
:1034C000154ADA627B6800221A637B68202283F83F
:1034D0003D207B68002283F83E207868FFF711F8D2
:1034E00014E07B681B6B222B02D0FB7B222B0DD1BF
:1034F0007B6800221A637B68202283F83D207B686A
:10350000002283F83E207868FEF7E5FF00BF103701
:10351000BD4680BD693800080000FFFF80B584B05B
:1035200000AF78607B6893F83D30FB737B68DB6AA3
:10353000BB60BB68082B02D0BB68202B29D1FB7B6A
:10354000282B26D17B682E4ADA627B681B685A6872
:103550007B681B6822F4E0625A607B681B686FF42A
:1035600080625A617B681B681A687B681B6822F45A
:1035700080621A607B6800221A637B68202283F8CD
:103580003D207B68002283F83E207868FEF7B9FF73
:1035900031E0FB7B212B29D17B68194ADA627B68F9
:1035A00021221A637B68202283F83D207B68002259
:1035B00083F83E207B681B685A687B681B6822F48E
:1035C000E0625A607B681B686FF480625A617B68B6
:1035D0001B681A687B681B6822F480621A6078682E
:1035E000FEF750FD7868FEF76DFF04E07B681B680E
:1035F0006FF480625A6100BF1037BD4680BD00BFC6
:103600000000FFFF80B584B000AF78607B6893F85E
:103610003D30FB737B6893F83E30BB73BB7B102B54
:1036200002D0BB7B402B0AD1FB7B222B07D17B68CE
:103630001B681A687B681B6822F400621A60FB7BB7
:1036400003F02803282B07D17B6800221A637B68CC
:10365000282283F83D2015E07B681B685B6803F433
:103660000063B3F5006F0AD0FB7B602B07D07B684B
:10367000202283F83D207B68002283F83E207B686F
:1036800000221A637B681B685B6803F40063B3F570
:10369000006F62D17B681B685A687B681B6822F4E4
:1036A00000625A607B685B6B93F82130DBB2012BC0
:1036B00020D07B685B6B6A4A5A637B685B6B1846F9
:1036C000FEF74AF90346002B00F089807B681B68EF
:1036D0001A687B681B6822F001021A607B6820224E
:1036E00083F83D207B685B6B5B6B7A68526B10469E
:1036F000984774E07B689B6B594A5A637B689B6B65
:103700001846FEF729F90346002B68D07B681B6832
:103710005B6903F04003402B0BD17B681B681A697F
:103720007B685B6AD2B21A707B685B6A5A1C7B68E2
:103730005A627B681B681A687B681B6822F001026A
:103740001A607B68202283F83D207B689B6B5B6B53
:103750007A68926B1046984741E07B6893F83D3059
:10376000DBB2602B25D17B68202283F83D207B686B
:1037700000221A647B681B685B6903F04003402BDE
:103780000BD17B681B681A697B685B6AD2B21A70BE
:103790007B685B6A5A1C7B685A627B681B681A6884
:1037A0007B681B6822F001021A607868FEF7CDFE84
:1037B00015E07B681B685B6903F04003402B0BD16D
:1037C0007B681B681A697B685B6AD2B21A707B6877
:1037D0005B6A5A1C7B685A627868FEF7ADFE7B68AC
:1037E0001B6CBB60BB6803F00103002B0ED1BB68F0
:1037F00003F00203002B09D1BB6803F00403002B84
:1038000004D1BB6803F00803002B07D07B681B685A
:103810005A687B681B6822F4E0625A607B6893F800
:103820003D30FB737B681B6C03F00403042B13D146
:10383000FB7B282B10D17B680A4ADA627B68002266
:103840001A637B68202283F83D207B68002283F87E
:103850003E207868FEF755FE00BF1037BD4680BD9C
:10386000693800080000FFFF80B586B000AF7860BF
:103870000023FB607B685B6A7B617B6993F83D306A
:10388000FB744B4B1B68DB084A4AA2FB03231A0A52
:1038900013469B001344DA00D31AFB60FB68002B2D
:1038A00006D17B691B6C43F020027B691A640AE035
:1038B000FB68013BFB607B691B681B6803F40073BA
:1038C000B3F5007FEAD07B695B6B002B03D07B698B
:1038D0005B6B00229A627B699B6B002B03D07B6938
:1038E0009B6B00229A627B691B681A687B691B6864
:1038F00022F480621A607B6900225A857B695B6BC7
:10390000002B03D07B695B6B00225A637B699B6B46
:10391000002B03D07B699B6B00225A637B691B6879
:103920001A687B691B6822F001021A607B6993F8B0
:103930003D30DBB2602B0ED17B69202283F83D2025
:103940007B69002283F83E207B6900221A64786933
:10395000FEF7FBFD27E0FB7C03F02803282B17D1A3
:103960007B691B681A687B691B6842F001021A6058
:103970007B691B681A687B691B6842F480621A6065
:103980007B6900221A637B69282283F83D2007E0C7
:103990007B69202283F83D207B69002283F83E204A
:1039A0007869FEF7C9FD00BF1837BD4680BD00BF6E
:1039B0000000002089B5F81480B485B000AF7860AD
:1039C0000023FB60134B1B68DB08134AA2FB032395
:1039D0001A0A13469B001344FB60FB68013BFB6023
:1039E000FB68002B07D17B681B6C43F020027B68CF
:1039F0001A64012308E07B681B681B6803F40073EA
:103A0000B3F5007FE9D0002318461437BD4680BCCB
:103A1000704700BF0000002089B5F81480B483B05F
:103A200000AF78607B68DB6AB3F52A0F03D17B684F
:103A30000122DA6207E07B68DB6AB3F12A4F02D128
:103A40007B680822DA6200BF0C37BD4680BC704735
:103A500080B586B000AF78607B68002B01D1012370
:103A600072E27B681B6803F00103002B00F0878083
:103A7000924B5B6803F00C03042B0CD08F4B5B68FC
:103A800003F00C03082B12D18C4B5B6803F48033DA
:103A9000B3F5803F0BD1894B1B6803F40033002B37
:103AA0006CD07B685B68002B68D101234CE27B689B
:103AB0005B68B3F5803F06D1804B1B687F4A43F4B7
:103AC000803313602EE07B685B68002B0CD17B4B4E
:103AD0001B687A4A23F480331360784B1B68774A5B
:103AE00023F4802313601DE07B685B68B3F5A02F8F
:103AF0000CD1724B1B68714A43F4802313606F4BE7
:103B00001B686E4A43F4803313600BE06B4B1B68F9
:103B10006A4A23F480331360684B1B68674A23F4B6
:103B2000802313607B685B68002B13D0FDF79EFD3C
:103B3000386108E0FDF79AFD02463B69D31A642B11
:103B400001D9032300E25D4B1B6803F40033002B13
:103B5000F0D014E0FDF78AFD386108E0FDF786FD3E
:103B600002463B69D31A642B01D90323ECE1534B82
:103B70001B6803F40033002BF0D100E000BF7B682A
:103B80001B6803F00203002B63D04C4B5B6803F00F
:103B90000C03002B0BD0494B5B6803F00C03082B84
:103BA0001CD1464B5B6803F48033002B16D1434B8A
:103BB0001B6803F00203002B05D07B681B69012BF7
:103BC00001D00123C0E13D4B1B6823F0F8027B6864
:103BD0005B69DB00394913430B603AE07B681B6982
:103BE000002B20D0364B01221A60FDF73FFD3861D3
:103BF00008E0FDF73BFD02463B69D31A022B01D9D1
:103C00000323A1E12D4B1B6803F00203002BF0D02E
:103C10002A4B1B6823F0F8027B685B69DB002749AD
:103C200013430B6015E0264B00221A60FDF71EFDC2
:103C3000386108E0FDF71AFD02463B69D31A022BF2
:103C400001D9032380E11D4B1B6803F00203002B05
:103C5000F0D17B681B6803F00803002B3AD07B6827
:103C60009B69002B19D0174B01221A60FDF7FEFC4F
:103C7000386108E0FDF7FAFC02463B69D31A022BD3
:103C800001D9032360E10D4B5B6A03F00203002BB3
:103C9000F0D0012000F0CEFA1CE00A4B00221A609E
:103CA000FDF7E4FC38610FE0FDF7E0FC02463B69FC
:103CB000D31A022B08D9032346E100BF00100240AB
:103CC0000000424280044242924B5B6A03F00203CE
:103CD000002BE9D17B681B6803F00403002B00F084
:103CE000A6800023FB758B4BDB6903F08053002B10
:103CF0000DD1884BDB69874A43F08053D361854BF4
:103D0000DB6903F08053BB60BB680123FB75824B0A
:103D10001B6803F48073002B18D17F4B1B687E4A0D
:103D200043F480731360FDF7A1FC386108E0FDF7F0
:103D30009DFC02463B69D31A642B01D9032303E19E
:103D4000754B1B6803F48073002BF0D07B68DB6835
:103D5000012B06D16F4B1B6A6E4A43F001031362BD
:103D60002DE07B68DB68002B0CD16A4B1B6A694A2B
:103D700023F001031362674B1B6A664A23F00403B6
:103D800013621CE07B68DB68052B0CD1614B1B6A5E
:103D9000604A43F0040313625E4B1B6A5D4A43F0C2
:103DA000010313620BE05B4B1B6A5A4A23F00103C9
:103DB0001362584B1B6A574A23F0040313627B6853
:103DC000DB68002B15D0FDF751FC38610AE0FDF7E8
:103DD0004DFC02463B69D31A41F28832934201D925
:103DE0000323B1E04B4B1B6A03F00203002BEED020
:103DF00014E0FDF73BFC38610AE0FDF737FC0246B2
:103E00003B69D31A41F28832934201D903239BE0E4
:103E1000404B1B6A03F00203002BEED1FB7D012B0C
:103E200005D13C4BDB693B4A23F08053D3617B686F
:103E3000DB69002B00F08780364B5B6803F00C03D6
:103E4000082B61D07B68DB69022B46D1334B002203
:103E50001A60FDF70BFC386108E0FDF707FC02462D
:103E60003B69D31A022B01D903236DE0294B1B6850
:103E700003F00073002BF0D17B681B6AB3F5803F21
:103E800008D1244B5B6823F400327B689B6821498E
:103E900013434B601F4B5B6823F474127B68196AF1
:103EA0007B685B6A0B431B4913434B601B4B01222E
:103EB0001A60FDF7DBFB386108E0FDF7D7FB02462F
:103EC0003B69D31A022B01D903233DE0114B1B6838
:103ED00003F00073002BF0D035E0104B00221A6085
:103EE000FDF7C4FB386108E0FDF7C0FB02463B6903
:103EF000D31A022B01D9032326E0064B1B6803F0DB
:103F00000073002BF0D11EE07B68DB69012B07D129
:103F1000012319E00010024000700040600042429E
:103F20000B4B5B68FB60FB6803F480327B681B6AA9
:103F30009A4206D1FB6803F470127B685B6A9A426E
:103F400001D0012300E0002318461837BD4680BD8C
:103F50000010024080B584B000AF786039607B68A3
:103F6000002B01D10123D0E06A4B1B6803F007034B
:103F70003A689A4210D9674B1B6823F007026549DB
:103F80003B6813430B60634B1B6803F007033A68FD
:103F90009A4201D00123B8E07B681B6803F002035A
:103FA000002B20D07B681B6803F00403002B05D096
:103FB000594B5B68584A43F4E06353607B681B6865
:103FC00003F00803002B05D0534B5B68524A43F4BF
:103FD00060535360504B5B6823F0F0027B689B6832
:103FE0004D4913434B607B681B6803F00103002BB2
:103FF00040D07B685B68012B07D1474B1B6803F4FB
:104000000033002B15D101237FE07B685B68022B16
:1040100007D1414B1B6803F00073002B09D101232A
:1040200073E03D4B1B6803F00203002B01D1012319
:104030006BE0394B5B6823F003027B685B683649B1
:1040400013434B60FDF712FBF8600AE0FDF70EFB2F
:104050000246FB68D31A41F28832934201D9032306
:1040600053E02D4B5B6803F00C027B685B689B00A0
:104070009A42EBD1274B1B6803F007033A689A4238
:1040800010D2244B1B6823F0070222493B681343DC
:104090000B60204B1B6803F007033A689A4201D07B
:1040A000012332E07B681B6803F00403002B08D077
:1040B000194B5B6823F4E0627B68DB6816491343A5
:1040C0004B607B681B6803F00803002B09D0124B80
:1040D0005B6823F460527B681B69DB000E49134365
:1040E0004B6000F021F802460B4B5B681B0903F0A4
:1040F0000F030A49CB5C22FA03F3094A1360094B08
:104100001B681846FDF770FA002318461037BD46A5
:1041100080BD00BF00200240001002405C59000832
:10412000000000200400002080B487B000AF00230E
:10413000FB600023BB6000237B6100237B600023C6
:104140003B611E4B5B68FB60FB6803F00C03042BB8
:1041500002D0082B03D027E0194B3B6127E0FB6816
:104160009B0C03F00F03174AD35C7B60FB6803F4DE
:104170008033002B10D0114B5B685B0C03F0010304
:10418000114AD35CBB607B680D4A03FB02F2BB683B
:10419000B2FBF3F37B6104E07B680C4A02FB03F3A0
:1041A0007B617B693B6102E0054B3B6100BF3B6982
:1041B00018461C37BD4680BC704700BF0010024047
:1041C00000127A00745900088459000800093D0063
:1041D00080B400AF024B1B681846BD4680BC7047D8
:1041E0000000002080B500AFFFF7F2FF0246054B4C
:1041F0005B681B0A03F007030349CB5C22FA03F355
:10420000184680BD001002406C59000880B500AF10
:10421000FFF7DEFF0246054B5B68DB0A03F007038E
:104220000349CB5C22FA03F3184680BD001002401C
:104230006C59000880B485B000AF78600A4B1B68E9
:104240000A4AA2FB03235B0A7A6802FB03F3FB60C2
:1042500000BFFB685A1EFA60002BF9D100BF00BFF7
:104260001437BD4680BC704700000020D34D62105B
:1042700080B582B000AF78607B68002B01D101234C
:1042800041E07B6893F83D30DBB2002B06D17B68C0
:10429000002283F83C207868FDF76AF87B680222E8
:1042A00083F83D207B681A687B6804331946104602
:1042B00000F092F97B68012283F846207B68012296
:1042C00083F83E207B68012283F83F207B6801222F
:1042D00083F840207B68012283F841207B6801221B
:1042E00083F842207B68012283F843207B68012207
:1042F00083F844207B68012283F845207B680122F3
:1043000083F83D20002318460837BD4680BD0000D5
:1043100080B584B000AF786039603B68002B09D16C
:104320007B6893F83E30DBB2012B14BF01230023DE
:10433000DBB222E03B68042B09D17B6893F83F3065
:10434000DBB2012B14BF01230023DBB215E03B6875
:10435000082B09D17B6893F84030DBB2012B14BFE6
:1043600001230023DBB208E07B6893F84130DBB225
:10437000012B14BF01230023DBB2002B01D001234A
:104380005EE03B68002B04D17B68022283F83E206C
:1043900013E03B68042B04D17B68022283F83F20A2
:1043A0000BE03B68082B04D17B68022283F8402095
:1043B00003E07B68022283F841207B681B680122AE
:1043C0003968184600F0FEFA7B681B681E4A934263
:1043D00007D17B681B685A6C7B681B6842F40042FB
:1043E0005A647B681B68184A93420ED07B681B682E
:1043F000B3F1804F09D07B681B68144A934204D004
:104400007B681B68124A934211D17B681B689B68CA
:1044100003F00703FB60FB68062B10D07B681B686A
:104420001A687B681B6842F001021A6007E07B682B
:104430001B681A687B681B6842F001021A6000233F
:1044400018461037BD4680BD002C014000040040D6
:104450000008004080B586B000AFF860B9607A60AF
:104460000023FB75FB6893F83C30012B01D102233C
:10447000AEE0FB68012283F83C207B680C2B00F245
:104480009F8001A252F823F0BD440008C1450008F6
:10449000C1450008C1450008FD440008C1450008A9
:1044A000C1450008C14500083F450008C145000856
:1044B000C1450008C14500087F450008FB681B682E
:1044C000B968184600F0F6F8FB681B689A69FB6843
:1044D0001B6842F008029A61FB681B689A69FB68D6
:1044E0001B6822F004029A61FB681B689969BB682B
:1044F0001A69FB681B680A439A6164E0FB681B68E1
:10450000B968184600F03CF9FB681B689A69FB68BB
:104510001B6842F400629A61FB681B689A69FB6839
:104520001B6822F480629A61FB681B689969BB680A
:104530001B691A02FB681B680A439A6143E0FB6827
:104540001B68B968184600F085F9FB681B68DA69D2
:10455000FB681B6842F00802DA61FB681B68DA69D5
:10456000FB681B6822F00402DA61FB681B68D969EA
:10457000BB681A69FB681B680A43DA6123E0FB68C1
:104580001B68B968184600F0CFF9FB681B68DA6948
:10459000FB681B6842F40062DA61FB681B68DA6939
:1045A000FB681B6822F48062DA61FB681B68D969CA
:1045B000BB681B691A02FB681B680A43DA6102E0E8
:1045C0000123FB7500BFFB68002283F83C20FB7DC4
:1045D00018461837BD4680BD80B485B000AF7860FE
:1045E00039607B681B68FB607B682F4A93420BD065
:1045F0007B68B3F1804F07D07B682C4A934203D08D
:104600007B682B4A934208D1FB6823F07003FB6060
:104610003B685B68FA681343FB607B68224A9342FD
:104620000BD07B68B3F1804F07D07B681F4A934261
:1046300003D07B681E4A934208D1FB6823F4407381
:10464000FB603B68DB68FA681343FB60FB6823F0A0
:1046500080023B685B691343FB607B68FA681A6001
:104660003B689A687B68DA623B681A687B689A6282
:104670007B680D4A934203D13B681A697B681A63D1
:104680007B6801225A617B681B6903F00103002BE0
:1046900005D07B681B6923F001027B681A6100BFAB
:1046A0001437BD4680BC7047002C01400004004018
:1046B0000008004080B487B000AF786039607B6844
:1046C0001B6A7B617B681B6A23F001027B681A62AC
:1046D0007B685B683B617B689B69FB60FB6823F0E0
:1046E0007003FB60FB6823F00303FB603B681B68FF
:1046F000FA681343FB607B6923F002037B613B682C
:104700009B687A6913437B617B681C4A93420CD196
:104710007B6923F008037B613B68DB687A6913439C
:104720007B617B6923F004037B617B68134A9342BE
:1047300011D13B6923F480733B613B6923F400731F
:104740003B613B685B693A6913433B613B689B692A
:104750003A6913433B617B683A695A607B68FA683F
:104760009A613B685A687B685A637B687A691A6207
:1047700000BF1C37BD4680BC704700BF002C014005
:1047800080B487B000AF786039607B681B6A7B615A
:104790007B681B6A23F010027B681A627B685B6887
:1047A0003B617B689B69FB60FB6823F4E043FB6033
:1047B000FB6823F44073FB603B681B681B02FA68CC
:1047C0001343FB607B6923F020037B613B689B689C
:1047D0001B017A6913437B617B681D4A93420DD1AB
:1047E0007B6923F080037B613B68DB681B017A698E
:1047F00013437B617B6923F040037B617B68144A30
:10480000934213D13B6923F480633B613B6923F4FA
:1048100000633B613B685B699B003A6913433B6102
:104820003B689B699B003A6913433B617B683A692B
:104830005A607B68FA689A613B685A687B689A6339
:104840007B687A691A6200BF1C37BD4680BC70471E
:10485000002C014080B487B000AF786039607B687D
:104860001B6A7B617B681B6A23F480727B681A6217
:104870007B685B683B617B68DB69FB60FB6823F0FE
:104880007003FB60FB6823F00303FB603B681B685D
:10489000FA681343FB607B6923F400737B613B6818
:1048A0009B681B027A6913437B617B681D4A9342B4
:1048B0000DD17B6923F400637B613B68DB681B02DD
:1048C0007A6913437B617B6923F480637B617B6836
:1048D000144A934213D13B6923F480533B613B69F3
:1048E00023F400533B613B685B691B013A69134346
:1048F0003B613B689B691B013A6913433B617B68E1
:104900003A695A607B68FA68DA613B685A687B6882
:10491000DA637B687A691A6200BF1C37BD4680BCC7
:10492000704700BF002C014080B487B000AF7860B2
:1049300039607B681B6A3B617B681B6A23F4805289
:104940007B681A627B685B687B617B68DB69FB6004
:10495000FB6823F4E043FB60FB6823F44073FB60D7
:104960003B681B681B02FA681343FB603B6923F436
:1049700000533B613B689B681B033A6913433B61EF
:104980007B680F4A934209D17B6923F480437B61A2
:104990003B685B699B017A6913437B617B687A6939
:1049A0005A607B68FA68DA613B685A687B681A6407
:1049B0007B683A691A6200BF1C37BD4680BC7047ED
:1049C000002C014080B487B000AFF860B9607A6015
:1049D000BB6803F01F03012202FA03F37B61FB684B
:1049E0001A6A7B69DB431A40FB681A62FB681A6A21
:1049F000BB6803F01F03796801FA03F31A43FB68ED
:104A00001A6200BF1C37BD4680BC704780B485B0B9
:104A100000AF786039607B6893F83C30012B01D19E
:104A2000022346E07B68012283F83C207B68022257
:104A300083F83D207B681B685B68FB607B681B68B4
:104A40009B68BB60FB6823F07003FB603B681B68DE
:104A5000FA681343FB607B681B68FA685A607B68DE
:104A60001B68164A93420ED07B681B68B3F1804FD7
:104A700009D07B681B68124A934204D07B681B688C
:104A8000104A93420CD1BB6823F08003BB603B68A3
:104A90005B68BA681343BB607B681B68BA689A603E
:104AA0007B68012283F83D207B68002283F83C204C
:104AB000002318461437BD4680BC7047002C0140C7
:104AC000000400400008004080B485B000AF78606A
:104AD00039600023FB607B6893F83C30012B01D1E7
:104AE00002233DE07B68012283F83C20FB6823F031
:104AF000FF023B68DB681343FB60FB6823F44072F2
:104B00003B689B681343FB60FB6823F480623B684F
:104B10005B681343FB60FB6823F400623B681B681F
:104B20001343FB60FB6823F480523B681B6913430B
:104B3000FB60FB6823F400523B685B691343FB6036
:104B4000FB6823F480423B68DB691343FB607B68AE
:104B50001B68FA685A647B68002283F83C200023B3
:104B600018461437BD4680BC704780B582B000AF90
:104B700078607B68002B01D1012342E07B6893F8C9
:104B80004130DBB2002B06D17B68002283F8402045
:104B90007868FCF769FC7B68242283F841207B68F5
:104BA0001B68DA687B681B6822F40052DA60786858
:104BB00000F0EEFD7B681B681A697B681B6822F4B5
:104BC00090421A617B681B685A697B681B6822F0F7
:104BD0002A025A617B681B68DA687B681B6842F4AA
:104BE0000052DA607B6800225A647B68202283F8D6
:104BF00041207B68202283F842207B6800225A6390
:104C0000002318460837BD4680BD80B58AB002AF84
:104C1000F860B9603B601346FB8000237B61FB6852
:104C200093F84130DBB2202B75D1BB68002B02D04A
:104C3000FB88002B01D101236EE0FB6800225A643F
:104C4000FB68212283F84120FCF710FD7861FB68A6
:104C5000FA889A84FB68FA88DA84FB689B68B3F563
:104C6000805F08D1FB681B69002B04D10023FB6126
:104C7000BB68BB6103E0BB68FB610023BB612EE046
:104C80003B6800937B6900228021F86800F053FBA9
:104C90000346002B05D0FB68202283F84120032324
:104CA0003AE0FB69002B0BD1BB691B881A46FB68F5
:104CB0001B68C2F308025A60BB690233BB6107E09C
:104CC000FB691A78FB681B685A60FB690133FB615A
:104CD000FB68DB8C9BB2013B9AB2FB68DA84FB6811
:104CE000DB8C9BB2002BCBD13B6800937B6900220D
:104CF0004021F86800F01FFB0346002B05D0FB683D
:104D0000202283F84120032306E0FB68202283F859
:104D10004120002300E0022318462037BD4680BD15
:104D200080B58CB000AFF860B9601346FB80FB68BB
:104D300093F84230DBB2202B4AD1BB68002B02D063
:104D4000FB88002B01D1012343E0FB6801221A6399
:104D5000FB6800225A63FB881A46B968F86800F0BD
:104D600043FB034687F82F3097F82F30002B2CD1C8
:104D7000FB681B6B012B25D100233B61FB681B6883
:104D80001B683B61FB681B685B683B613B69FB68B8
:104D90001B680C33BB61BB6953E8003F7B617B69D7
:104DA00043F01003BB62FB681B680C33BA6A7A627B
:104DB0003B62396A7A6A41E80023FB61FB69002B98
:104DC000E5D102E0012387F82F3097F82F3000E07B
:104DD000022318463037BD4680BD000080B5BAB00A
:104DE00000AF78607B681B681B68C7F8E4307B689D
:104DF0001B68DB68C7F8E0307B681B685B69C7F835
:104E0000DC300023C7F8D8300023C7F8D430D7F8F7
:104E1000E43003F00F03C7F8D830D7F8D830002BB0
:104E20000FD1D7F8E43003F02003002B09D0D7F8D6
:104E3000E03003F02003002B03D0786800F0EAFB99
:104E40005BE2D7F8D830002B00F0DE80D7F8DC30FA
:104E500003F00103002B06D1D7F8E03003F4907380
:104E6000002B00F0D180D7F8E43003F00103002BD1
:104E70000BD0D7F8E03003F48073002B05D07B68AB
:104E80005B6C43F001027B685A64D7F8E43003F0AE
:104E90000403002B0BD0D7F8DC3003F00103002B08
:104EA00005D07B685B6C43F002027B685A64D7F8DC
:104EB000E43003F00203002B0BD0D7F8DC3003F012
:104EC0000103002B05D07B685B6C43F004027B6818
:104ED0005A64D7F8E43003F00803002B11D0D7F858
:104EE000E03003F02003002B05D1D7F8DC3003F0CD
:104EF0000103002B05D07B685B6C43F008027B68E4
:104F00005A647B685B6C002B00F0F281D7F8E430C8
:104F100003F02003002B08D0D7F8E03003F0200383
:104F2000002B02D0786800F075FB7B681B685B691A
:104F300003F04003002B14BF01230023DBB2C7F8AA
:104F4000D4307B685B6C03F00803002B03D1D7F8E7
:104F5000D430002B4FD0786800F07FFA7B681B6854
:104F60005B6903F04003002B41D07B681B6814335E
:104F7000C7F89C30D7F89C3053E8003FC7F898300A
:104F8000D7F8983023F04003C7F8D0307B681B680F
:104F90001433D7F8D020C7F8A820C7F8A430D7F822
:104FA000A410D7F8A82041E80023C7F8A030D7F80C
:104FB000A030002BD9D17B68DB6B002B13D07B6832
:104FC000DB6B7E4A5A637B68DB6B1846FCF7C4FCDC
:104FD0000346002B16D07B68DB6B5B6B7A68D26B69
:104FE000104698470EE0786800F09CF90AE078686F
:104FF00000F098F906E0786800F094F97B680022E8
:105000005A6475E100BF73E17B681B6B012B40F0B4
:105010004F81D7F8E43003F01003002B00F04881F3
:10502000D7F8E03003F01003002B00F0418100239B
:10503000BB607B681B681B68BB607B681B685B6828
:10504000BB60BB687B681B685B6903F04003002B97
:1050500000F0B6807B68DB6B1B685B68A7F8BE302E
:10506000B7F8BE30002B00F045817B689B8DB7F808
:10507000BE209A4280F03E817B68B7F8BE20DA8578
:105080007B68DB6B9B69202B00F088807B681B684A
:105090000C33C7F88830D7F8883053E8003FC7F89A
:1050A0008430D7F8843023F48073C7F8B8307B6835
:1050B0001B680C33D7F8B820C7F89420C7F8903095
:1050C000D7F89010D7F8942041E80023C7F88C3027
:1050D000D7F88C30002BD9D17B681B6814337B67E1
:1050E0007B6F53E8003F3B673B6F23F00103C7F83A
:1050F000B4307B681B681433D7F8B420C7F880201D
:10510000FB67F96FD7F8802041E80023BB67BB6FCE
:10511000002BE1D17B681B6814333B663B6E53E880
:10512000003FFB65FB6D23F04003C7F8B0307B68A0
:105130001B681433D7F8B020FA66BB66B96EFA6EF6
:1051400041E800237B667B6E002BE3D17B68202245
:1051500083F842207B6800221A637B681B680C334B
:10516000FB64FB6C53E8003FBB64BB6C23F0100393
:10517000C7F8AC307B681B680C33D7F8AC20BA6535
:105180007B65796DBA6D41E800233B653B6D002B73
:10519000E3D17B68DB6B1846FCF7A3FB7B6802223C
:1051A0005A637B689A8D7B68DB8D9BB2D31A9BB266
:1051B00019467868FBF77AFE9CE000BF1F5500088F
:1051C0007B689A8D7B68DB8D9BB2D31AA7F8CE30B3
:1051D0007B68DB8D9BB2002B00F08E80B7F8CE3061
:1051E000002B00F089807B681B680C33BB63BB6BB2
:1051F00053E8003F7B637B6B23F49073C7F8C830A0
:105200007B681B680C33D7F8C8207A643B64396C20
:105210007A6C41E80023FB63FB6B002BE3D17B68D6
:105220001B6814337B627B6A53E8003F3B623B6A36
:1052300023F00103C7F8C4307B681B681433D7F828
:10524000C4203A63FB62F96A3A6B41E80023BB620F
:10525000BB6A002BE3D17B68202283F842207B6865
:1052600000221A637B681B680C333B613B6953E87F
:10527000003FFB60FB6823F01003C7F8C0307B6879
:105280001B680C33D7F8C020FA61BB61B969FA69B1
:1052900041E800237B617B69002BE3D17B6802221C
:1052A0005A63B7F8CE3019467868FBF7FFFD23E064
:1052B000D7F8E43003F08003002B09D0D7F8E030B2
:1052C00003F08003002B03D0786800F03CF914E071
:1052D000D7F8E43003F04003002B0ED0D7F8E030CD
:1052E00003F04003002B08D0786800F07BF904E05D
:1052F00000BF02E000BF00E000BFE837BD4680BD50
:1053000080B483B000AF786000BF0C37BD4680BC6E
:10531000704780B483B000AF786000BF0C37BD46E3
:1053200080BC704780B483B000AF786000BF0C379A
:10533000BD4680BC704780B586B000AFF860B960EC
:105340003B601346FB713BE03B6AB3F1FF3F37D054
:10535000FCF78CF902463B68D31A3A6A9A4202D3A8
:105360003B6A002B01D103233AE0FB681B68DB6832
:1053700003F00403002B23D0BB68802B20D0BB6834
:10538000402B1DD0FB681B681B6803F00803082B2B
:1053900016D100237B61FB681B681B687B61FB687F
:1053A0001B685B687B617B69F86800F056F8FB68F6
:1053B00008225A64FB68002283F8402001230FE092
:1053C000FB681B681A68BB681340BA689A420CBF36
:1053D00001230023DBB21A46FB799A42B4D00023A2
:1053E00018461837BD4680BD80B485B000AFF86060
:1053F000B9601346FB80FB68BA689A62FB68FA885A
:105400009A85FB68FA88DA85FB6800225A64FB6893
:10541000222283F84220FB681B69002B07D0FB681F
:105420001B68DA68FB681B6842F48072DA60FB680C
:105430001B685A69FB681B6842F001025A61FB68ED
:105440001B68DA68FB681B6842F02002DA60002300
:1054500018461437BD4680BC704780B495B000AF85
:1054600078607B681B680C337B637B6B53E8003F81
:105470003B633B6B23F49073FB647B681B680C33CA
:10548000FA6C3A64FB63F96B3A6C41E80023BB6346
:10549000BB6B002BE5D17B681B6814333B623B6A16
:1054A00053E8003FFB61FB6923F00103BB647B68A9
:1054B0001B681433BA6CFA62BB62B96AFA6A41E8D3
:1054C00000237B627B6A002BE5D17B681B6B012B81
:1054D00019D17B681B680C33FB60FB6853E8003F05
:1054E000BB60BB6823F010037B647B681B680C33D4
:1054F0007A6CBA617B617969BA6941E800233B61E2
:105500003B69002BE5D17B68202283F842207B6831
:1055100000221A6300BF5437BD4680BC704780B577
:1055200084B000AF78607B685B6AFB60FB68002238
:10553000DA85FB680022DA84F868FFF7F3FE00BF23
:105540001037BD4680BD80B485B000AF78607B6801
:1055500093F84130DBB2212B3ED17B689B68B3F5D9
:10556000805F14D17B681B69002B10D17B681B6A9C
:10557000FB60FB681B881A467B681B68C2F3080245
:105580005A607B681B6A9A1C7B681A6208E07B6819
:105590001B6A591C7A6811621A787B681B685A600A
:1055A0007B68DB8C9BB2013B9BB27A681946D18445
:1055B000002B0FD17B681B68DA687B681B6822F0C0
:1055C0008002DA607B681B68DA687B681B6842F0DF
:1055D0004002DA60002300E0022318461437BD467B
:1055E00080BC704780B582B000AF78607B681B6874
:1055F000DA687B681B6822F04002DA607B68202250
:1056000083F841207868FFF77BFE002318460837AF
:10561000BD4680BD80B58CB000AF78607B6893F8E4
:105620004230DBB2222B40F0AE807B689B68B3F542
:10563000805F17D17B681B69002B13D10023FB62AD
:105640007B689B6ABB627B681B685B689BB2C3F329
:1056500008039AB2BB6A1A807B689B6A9A1C7B68B3
:105660009A6226E07B689B6AFB620023BB627B68D0
:105670009B68B3F5805F07D07B689B68002B0AD1DD
:105680007B681B69002B06D17B681B685B68DAB2FC
:10569000FB6A1A7008E07B681B685B68DBB203F08A
:1056A0007F03DAB2FB6A1A707B689B6A5A1C7B68BC
:1056B0009A627B68DB8D9BB2013B9BB27A6819468C
:1056C000D185002B5DD17B681B68DA687B681B681D
:1056D00022F02002DA607B681B68DA687B681B684E
:1056E00022F48072DA607B681B685A697B681B68E9
:1056F00022F001025A617B68202283F842207B68F5
:1057000000225A637B681B6B012B35D17B6800221A
:105710001A637B681B680C337B617B6953E8003F2D
:105720003B613B6923F010037B627B681B680C3391
:105730007A6A3A62FB61F9693A6A41E80023BB611F
:10574000BB69002BE5D17B681B681B6803F0100365
:10575000102B0AD10023FB607B681B681B68FB6071
:105760007B681B685B68FB60FB687B689B8D1946E8
:105770007868FBF79BFB02E07868FFF7CAFD00231F
:1057800002E0002300E0022318463037BD4680BD0A
:1057900080B584B000AF78607B681B681B6923F418
:1057A00040517B68DA687B681B680A431A617B6832
:1057B0009A687B681B691A437B685B691343BB600B
:1057C0007B681B68DB6823F4B05323F00C037A6812
:1057D0001268B9680B43D3607B681B685B6923F46C
:1057E00040717B689A697B681B680A435A617B68D1
:1057F0001B682C4A934203D1FEF708FDF86002E0D3
:10580000FEF7F0FCF860FA6813469B0013449A0018
:105810001A447B685B689B00B2FBF3F3224AA2FB4D
:1058200003235B091901FA6813469B0013449A008D
:105830001A447B685B689B00B2FBF3F21A4BA3FB34
:1058400002035B09642000FB03F3D31A1B0132330C
:10585000154AA2FB03235B0903F0F0031944FA681D
:1058600013469B0013449A001A447B685B689B00B4
:10587000B2FBF3F20C4BA3FB02035B09642000FBB9
:1058800003F3D31A1B013233074AA2FB03235B093C
:1058900003F00F027B681B680A449A6000BF103750
:1058A000BD4680BD003801401F85EB5103460244D0
:1058B000934200D1704703F8011BF9E770B5002649
:1058C0000C4D0D4C641BA410A64209D100F028F821
:1058D00000260A4D0A4C641BA410A64205D170BDD7
:1058E00055F8043B98470136EEE755F8043B9847D6
:1058F0000136F2E7885900088859000888590008DD
:105900008C5900080A44914200F1FF3300D17047DE
:1059100010B511F8014B914203F8014FF9D110BDB8
:10592000F8B500BFF8BC08BC9E467047F8B500BF8C
:08593000F8BC08BC9E4670475C
:10593800EF01FFFFFFFF0100083202FFFF00040232
:105948003F000000EF01FFFFFFFF0100073C0404D8
:105958000000004C000000000000000001020304E9
:1059680006070809000000000102030402030405F9
:10597800060708090A0B0C0D0E0F10100102000093
:0459880035010008DD
:04598C0011010008FD
:0C5990000024F4001000000001000000E2
:0400000508001511C9
:00000001FF
